{
  "contractName": "SmartMeter",
  "abi": [
    {
      "constant": true,
      "inputs": [],
      "name": "bill",
      "outputs": [
        {
          "internalType": "int256",
          "name": "",
          "type": "int256"
        }
      ],
      "payable": false,
      "stateMutability": "view",
      "type": "function"
    },
    {
      "constant": false,
      "inputs": [
        {
          "internalType": "int256",
          "name": "kwh",
          "type": "int256"
        }
      ],
      "name": "set",
      "outputs": [],
      "payable": false,
      "stateMutability": "nonpayable",
      "type": "function"
    },
    {
      "constant": true,
      "inputs": [],
      "name": "get",
      "outputs": [
        {
          "internalType": "int256",
          "name": "",
          "type": "int256"
        }
      ],
      "payable": false,
      "stateMutability": "view",
      "type": "function"
    }
  ],
  "bytecode": "0x608060405234801561001057600080fd5b5060f58061001f6000396000f3fe6080604052348015600f57600080fd5b5060043610603c5760003560e01c8063371e677a1460415780636d4ce63c14605d578063e5c19b2d146079575b600080fd5b604760a4565b6040518082815260200191505060405180910390f35b606360aa565b6040518082815260200191505060405180910390f35b60a260048036036020811015608d57600080fd5b810190808035906020019092919050505060b3565b005b60005481565b60008054905090565b600a81026000819055505056fea265627a7a723158204aef068a94a85071d0c2fa6b307b5c1a5489fbb74fd18b479adb9ed239675ea064736f6c63430005100032",
  "source": "pragma solidity ^0.5.0;\r\n\r\ncontract SmartMeter {\r\n  int256 public bill;\r\n\r\n  function set(int256  kwh) public {\r\n    bill = kwh * 10;\r\n  }\r\n\r\n  function get() public view returns(int256) {\r\n    return bill;\r\n  }\r\n}",
  "sourcePath": "C:/Users/jafor/Desktop/blockchain/contracts/SmartMeter.sol",
  "compiler": {
    "name": "solc",
    "version": "0.5.16+commit.9c3226ce.Emscripten.clang"
  },
  "schemaVersion": "3.2.5",
  "updatedAt": "2020-09-27T14:49:06.795Z",
  "networkType": "ethereum",
  "devdoc": {
    "methods": {}
  },
  "userdoc": {
    "methods": {}
  }
}